:020000040000fa
:080000000002040000000000f2
:020000040000fa
:0400080004030000ed
:020000040000fa
:04000c0004030000e9
:020000040000fa
:0400100004030000e5
:020000040000fa
:0400140004030000e1
:020000040000fa
:0400180004030000dd
:020000040000fa
:04001c0004030000d9
:020000040000fa
:0400200004030000d5
:020000040000fa
:0400240004030000d1
:020000040000fa
:0400280004030000cd
:020000040000fa
:04002c0004030000c9
:020000040000fa
:0400300004030000c5
:020000040000fa
:0400340004030000c1
:020000040000fa
:0400380004030000bd
:020000040000fa
:04003c0004030000b9
:020000040000fa
:0400400004030000b5
:020000040000fa
:0400440004030000b1
:020000040000fa
:0400480004030000ad
:020000040000fa
:04004c0004030000a9
:020000040000fa
:0400500004030000a5
:020000040000fa
:0400540004030000a1
:020000040000fa
:04005800040300009d
:020000040000fa
:04005c000403000099
:020000040000fa
:040060000403000095
:020000040000fa
:040064000403000091
:020000040000fa
:04006800040300008d
:020000040000fa
:04006c000403000089
:020000040000fa
:040070000403000085
:020000040000fa
:040074000403000081
:020000040000fa
:04007800040300007d
:020000040000fa
:04007c000403000079
:020000040000fa
:040080000403000075
:020000040000fa
:040084000403000071
:020000040000fa
:04008800040300006d
:020000040000fa
:04008c000403000069
:020000040000fa
:040090000403000065
:020000040000fa
:040094000403000061
:020000040000fa
:04009800040300005d
:020000040000fa
:04009c000403000059
:020000040000fa
:0400a0000403000055
:020000040000fa
:0400a4000403000051
:020000040000fa
:0400a800040300004d
:020000040000fa
:0400ac000403000049
:020000040000fa
:0400b0000403000045
:020000040000fa
:0400b4000403000041
:020000040000fa
:0400b800040300003d
:020000040000fa
:0400bc000403000039
:020000040000fa
:0400c0000403000035
:020000040000fa
:0400c4000403000031
:020000040000fa
:0400c800040300002d
:020000040000fa
:0400cc000403000029
:020000040000fa
:0400d0000403000025
:020000040000fa
:0400d4000403000021
:020000040000fa
:0400d800040300001d
:020000040000fa
:0400dc000403000019
:020000040000fa
:0400e0000403000015
:020000040000fa
:0400e4000403000011
:020000040000fa
:0400e800040300000d
:020000040000fa
:0400ec000403000009
:020000040000fa
:0400f0000403000005
:020000040000fa
:0400f4000403000001
:020000040000fa
:0400f80004030000fd
:020000040000fa
:0400fc0004030000f9
:020000040000fa
:0401000004030000f4
:020000040000fa
:0401040004030000f0
:020000040000fa
:0401080004030000ec
:020000040000fa
:04010c0004030000e8
:020000040000fa
:0401100004030000e4
:020000040000fa
:0401140004030000e0
:020000040000fa
:0401180004030000dc
:020000040000fa
:04011c0004030000d8
:020000040000fa
:0401200004030000d4
:020000040000fa
:0401240004030000d0
:020000040000fa
:0401280004030000cc
:020000040000fa
:04012c0004030000c8
:020000040000fa
:0401300004030000c4
:020000040000fa
:0401340004030000c0
:020000040000fa
:0401380004030000bc
:020000040000fa
:04013c0004030000b8
:020000040000fa
:0401400004030000b4
:020000040000fa
:0401440004030000b0
:020000040000fa
:0401480004030000ac
:020000040000fa
:04014c0004030000a8
:020000040000fa
:0401500004030000a4
:020000040000fa
:0401540004030000a0
:020000040000fa
:04015800040300009c
:020000040000fa
:04015c000403000098
:020000040000fa
:040160000403000094
:020000040000fa
:040164000403000090
:020000040000fa
:04016800040300008c
:020000040000fa
:04016c000403000088
:020000040000fa
:040170000403000084
:020000040000fa
:040174000403000080
:020000040000fa
:04017800040300007c
:020000040000fa
:04017c000403000078
:020000040000fa
:040180000403000074
:020000040000fa
:040184000403000070
:020000040000fa
:04018800040300006c
:020000040000fa
:04018c000403000068
:020000040000fa
:040190000403000064
:020000040000fa
:040194000403000060
:020000040000fa
:04019800040300005c
:020000040000fa
:04019c000403000058
:020000040000fa
:0401a0000403000054
:020000040000fa
:0401a4000403000050
:020000040000fa
:0401a800040300004c
:020000040000fa
:0401ac000403000048
:020000040000fa
:0401b0000403000044
:020000040000fa
:0401b4000403000040
:020000040000fa
:0401b800040300003c
:020000040000fa
:0401bc000403000038
:020000040000fa
:0401c0000403000034
:020000040000fa
:0401c4000403000030
:020000040000fa
:0401c800040300002c
:020000040000fa
:0401cc000403000028
:020000040000fa
:0401d0000403000024
:020000040000fa
:0401d4000403000020
:020000040000fa
:0401d800040300001c
:020000040000fa
:0401dc000403000018
:020000040000fa
:0401e0000403000014
:020000040000fa
:0401e4000403000010
:020000040000fa
:0401e800040300000c
:020000040000fa
:0401ec000403000008
:020000040000fa
:0401f0000403000004
:020000040000fa
:0401f4000403000000
:020000040000fa
:0401f80004030000fc
:020000040000fa
:0401fc0004030000f8
:020000040000fa
:0402080004030000eb
:020000040000fa
:04020c0004030000e7
:020000040000fa
:0402100004030000e3
:020000040000fa
:0402140004030000df
:020000040000fa
:0402180004030000db
:020000040000fa
:04021c0004030000d7
:020000040000fa
:0402200004030000d3
:020000040000fa
:0402240004030000cf
:020000040000fa
:0402280004030000cb
:020000040000fa
:04022c0004030000c7
:020000040000fa
:0402300004030000c3
:020000040000fa
:0402340004030000bf
:020000040000fa
:0402380004030000bb
:020000040000fa
:04023c0004030000b7
:020000040000fa
:0402400004030000b3
:020000040000fa
:0402440004030000af
:020000040000fa
:0402480004030000ab
:020000040000fa
:04024c0004030000a7
:020000040000fa
:0402500004030000a3
:020000040000fa
:04025400040300009f
:020000040000fa
:04025800040300009b
:020000040000fa
:04025c000403000097
:020000040000fa
:040260000403000093
:020000040000fa
:04026400040300008f
:020000040000fa
:04026800040300008b
:020000040000fa
:04026c000403000087
:020000040000fa
:040270000403000083
:020000040000fa
:04027400040300007f
:020000040000fa
:04027800040300007b
:020000040000fa
:04027c000403000077
:020000040000fa
:040280000403000073
:020000040000fa
:04028400040300006f
:020000040000fa
:04028800040300006b
:020000040000fa
:04028c000403000067
:020000040000fa
:040290000403000063
:020000040000fa
:04029400040300005f
:020000040000fa
:04029800040300005b
:020000040000fa
:04029c000403000057
:020000040000fa
:0402a0000403000053
:020000040000fa
:0402a400040300004f
:020000040000fa
:0402a800040300004b
:020000040000fa
:0402ac000403000047
:020000040000fa
:0402b0000403000043
:020000040000fa
:0402b400040300003f
:020000040000fa
:0402b800040300003b
:020000040000fa
:0402bc000403000037
:020000040000fa
:0402c0000403000033
:020000040000fa
:0402c400040300002f
:020000040000fa
:0402c800040300002b
:020000040000fa
:0402cc000403000027
:020000040000fa
:0402d0000403000023
:020000040000fa
:0402d400040300001f
:020000040000fa
:0402d800040300001b
:020000040000fa
:0402dc000403000017
:020000040000fa
:0402e0000403000013
:020000040000fa
:0402e400040300000f
:020000040000fa
:0402e800040300000b
:020000040000fa
:0402ec000403000007
:020000040000fa
:0402f0000403000003
:020000040000fa
:0402f40004030000ff
:020000040000fa
:0402f80004030000fb
:020000040000fa
:0402fc0004030000f7
:020000040000fa
:0403000004030000f2
:020000040000fa
:0403040004030000ee
:020000040000fa
:0403080004030000ea
:020000040000fa
:04030c0004030000e6
:020000040000fa
:0403100004030000e2
:020000040000fa
:0403140004030000de
:020000040000fa
:0403180004030000da
:020000040000fa
:04031c0004030000d6
:020000040000fa
:0403200004030000d2
:020000040000fa
:0403240004030000ce
:020000040000fa
:0403280004030000ca
:020000040000fa
:04032c0004030000c6
:020000040000fa
:0403300004030000c2
:020000040000fa
:0403340004030000be
:020000040000fa
:0403380004030000ba
:020000040000fa
:04033c0004030000b6
:020000040000fa
:0403400004030000b2
:020000040000fa
:0403440004030000ae
:020000040000fa
:0403480004030000aa
:020000040000fa
:04034c0004030000a6
:020000040000fa
:0403500004030000a2
:020000040000fa
:04035400040300009e
:020000040000fa
:04035800040300009a
:020000040000fa
:04035c000403000096
:020000040000fa
:040360000403000092
:020000040000fa
:04036400040300008e
:020000040000fa
:04036800040300008a
:020000040000fa
:04036c000403000086
:020000040000fa
:040370000403000082
:020000040000fa
:04037400040300007e
:020000040000fa
:04037800040300007a
:020000040000fa
:04037c000403000076
:020000040000fa
:040380000403000072
:020000040000fa
:04038400040300006e
:020000040000fa
:04038800040300006a
:020000040000fa
:04038c000403000066
:020000040000fa
:040390000403000062
:020000040000fa
:04039400040300005e
:020000040000fa
:04039800040300005a
:020000040000fa
:04039c000403000056
:020000040000fa
:0403a0000403000052
:020000040000fa
:0403a400040300004e
:020000040000fa
:0403a800040300004a
:020000040000fa
:0403ac000403000046
:020000040000fa
:0403b0000403000042
:020000040000fa
:0403b400040300003e
:020000040000fa
:0403b800040300003a
:020000040000fa
:0403bc000403000036
:020000040000fa
:0403c0000403000032
:020000040000fa
:0403c400040300002e
:020000040000fa
:0403c800040300002a
:020000040000fa
:0403cc000403000026
:020000040000fa
:0403d0000403000022
:020000040000fa
:0403d400040300001e
:020000040000fa
:0403d800040300001a
:020000040000fa
:0403dc000403000016
:020000040000fa
:0403e0000403000012
:020000040000fa
:0403e400040300000e
:020000040000fa
:0403e800040300000a
:020000040000fa
:0403ec000403000006
:020000040000fa
:0403f0000403000002
:020000040000fa
:0403f40004030000fe
:020000040000fa
:0403f80004030000fa
:020000040000fa
:0403fc0004030000f6
:020000040000fa
:100400000f8020000e7f22000e01880000000000f7
:10041000000020000000e000020032000001200087
:100420002002880014000700790007000000e000a7
:1004300003003a0000002000010020000200370005
:100440000000200001002000810f70000100320038
:1004500014000700000020000000e000020032004d
:100460000000020000000000200502000000000063
:100470000040da000000fe004440a900a000200077
:100480000000e000030032000020200090018800fe
:100490004440a800000006008a1f78008b1f7800e7
:1004a00000000600a1028800800478000000eb0034
:1004b0001f003700e284440054a0b4009905ba003c
:1004c000e284440054a0b4009906ba00e2844400d7
:1004d00054a0b4000006eb00476fde00fd07b20039
:1004e000ae018800636ce10003003a00eaff0700f8
:1004f0000000eb000e003700606ce10008003a00dd
:10050000004deb000a05e800020039003420ec0041
:100510000af0a0008b05e900f9ff3e000400370057
:100520006168e100010032000086eb000b0007006b
:1005300019c7ba001905ba000e04e00003003a001a
:100540000a00e000dbff3a0000000600fe07b200f0
:10055000ae0288008a047800f5ff37000cd0a300b3
:10056000e20f4d001c00390089027800354dba00b9
:100570000a05e800020039003420ec000af0a0006f
:100580008b05e9000f003200254dba000a05e8008e
:10059000020039003420ec000af0a0008b05e900cd
:1005a000080032000c00e0000600320015cdba0051
:1005b0000a05e800020039003420ec000af0a0002f
:1005c0008b05e9008984e80054a0b4000b00e0002a
:1005d000e2ff3a00000006009902ba00055d7800cb
:1005e0008b05e900f7ff3200c82ade00055d7800c0
:1005f0008b05e900f3ff32000c00e000f1ff320050
:1006000019ddba00eeff37000040da000000fe00fe
:10061000000005006022b800060220000000d000a3
:100620008180d2000482d2008582d2000000a00026
:100630000202520083825a0003003100020242008b
:1006400083824a000000a1000603e900f3ff3a009c
:0406500000000600a0
:020000040000fa
:1006540000050000160500002c0500003805000008
:04066400d6030000b9
:020000040000fa
:100668000000fa0001102000620420007305200039
:10067800824878008348780000c1a9000080fa0009
:10068800000006000000fa000110200062042000ab
:1006980073052000824878008348780000c1a800cc
:1006a8000080fa00000006001e00fa00881f78008b
:1006b80070079800010f9800120f9800230f9800f8
:1006c800340f9800450f9800560f9800670f980050
:1006d800e3ff07007e009000e20f50001600320092
:1006e800e20f500003003e00e10f50000600320008
:1006f80036003700e30f50001b003200e40f5000b3
:1007080026003200310037001e08900000407800b3
:10071800f043b2008080fb00f003200000806000fe
:10072800821d800001fc2f00810061000100700023
:10073800801d8800250037001e08900000407800c2
:10074800f043b2008080fb00f003200000806000ce
:10075800921d800001fc2f008100610001007000e3
:10076800901d8800190037001e089000004078008e
:10077800f043b2008080fb00f0032000008060009e
:100788004800dd00721d8000f10f2c00810061001f
:1007980001007000701d88000c0037001e089000d2
:1007a80000407800f043b2008080fb00f003200096
:1007b80000806000121e800001fc2f008100610093
:1007c80001007000101e8800000000009221ef0058
:1007d80030002000300798005000200040079800a3
:1007e8003001200050079800500120006007980051
:1007f8000e0890000000d100000f78000e0890004d
:100808006100600010079800911984001e007800ac
:100818000000400080804000921984001e0078008b
:100828000000400000004100100178001e00900008
:100838000000e00002003200f00f2c000100370039
:1008480000fc2f00000061008008780091198400e6
:100858001e0078000000400080804000921984004b
:100868001e007800000040000000410010017800e0
:100878007e0090000000e9000000400000004700f2
:10088800b00190001e0090000000e000020032005d
:1008980080002000010037000000eb000018dd0098
:1008a800020070008008780076ff07000e089000ac
:1008b800110020000008dd000080ea0080007800b8
:1008c800500c800000806000500c88001e089000ca
:1008d800110020000008dd0080007800500c800026
:1008e80001007000500c88007e0090000000e900b4
:1008f80080004000a032280000804000900078006e
:10090800210798002e009000680440002e089000ef
:10091800be0890000001be0000242400f100200061
:100928003aff0700000078000000e900000c78009a
:100938004e089000e20f500002003a009000280094
:100948000100370080002800ae0090008008780081
:100958002e0090000080e800014021000108780086
:100968004f0478000080fa00000006001200fa0028
:10097800100798002107980032079800430798004d
:10098800540798006507980076079800070f9800a5
:100998001e0090000000e90080004000a0322800fe
:1009a80000804000100f78001e80e80010007800da
:1009b80061006000004078000004e000050032009b
:1009c8009e007800668040001000780000407800a3
:1009d800010037000040eb000080fa00000006002c
:1009e8001200fa00100798002107980032079800b3
:1009f8004307980054079800650798007607980001
:100a0800070f98001e0090000000e90080004000d9
:100a1800a032280000804000100f78009e00780067
:100a2800648040008ef897008100fb000108780080
:100a38000080fa00000006004200fa00e2004700c9
:100a4800070009008018eb0010002000100798002c
:100a580080002000200798009000200030079800b0
:100a68000060290001002000400798005107980005
:100a78001000200060079800f200470007000900f6
:100a88008018eb0020002000100f9800e0002000e4
:100a9800200f9800f0002000300f9800004b200035
:100aa80001002000400f9800510f980020002000fe
:100ab800600f98008e0078002102b000070009003e
:100ac8008018eb003000200010179800100020005c
:100ad80020179800006029000100200040179800a6
:100ae8005117980010002000601798008e007800b9
:100af8002103b000070009008018eb004000200027
:100b0800101f980030002000201f980020002000af
:100b1800301f98000060290001002000401f980045
:100b2800511f980010002000601f98001e009000c0
:100b3800ae0090003e019000ce0190005e02900051
:100b4800ee0290007e0390008e0b9000d6fe070008
:100b58001e089000ae0890003e099000ce09900053
:100b68005e0a9000ee0a90007e0b90008e139000b3
:100b7800cdfe07001e109000ae1090003e119000b0
:100b8800ce1190005e129000ee1290007e1390003d
:100b98008e1b9000c4fe07001e189000ae1890002f
:100ba8003e199000ce1990005e1a9000ee1a90003f
:100bb8007e1b90008e239000bbfe070001003700cb
:100bc800000000001e009000ae0090003e01900062
:100bd800ce0190005e029000ee0290007e0390002d
:100be8008e0b900061ff0700004f78001e407800d0
:100bf8000004e0000c0032001e407800801f7800de
:100c08001e009000ae0090003e019000ce019000c2
:100c18005e029000ee0290007e0390008e0b900022
:100c28006fff07008f87e9001e089000ae0890004c
:100c38003e099000ce0990005e0a9000ee0a9000ee
:100c48007e0b90008e13900048ff0700004f78003d
:100c58001e4078000004e0000c0032001e407800be
:100c6800801f78001e089000ae0890003e09900092
:100c7800ce0990005e0a9000ee0a90007e0b90006c
:100c88008e13900056ff07008f87e9001e10900012
:100c9800ae1090003e119000ce1190005e129000b0
:100ca800ee1290007e1390008e1b90002fff07001d
:100cb800004f78001e4078000004e0000c0032006d
:100cc8001e407800801f78001e109000ae10900023
:100cd8003e119000ce1190005e129000ee1290002e
:100ce8007e1390008e1b90003dff07008f87e90060
:100cf8001e189000ae1890003e199000ce19900072
:100d08005e1a9000ee1a90007e1b90008e239000d1
:100d180016ff0700004f78001e4078000004e0002e
:100d2800a7ff32001e407800801f78001e18900030
:100d3800ae1890003e199000ce1990005e1a9000ef
:100d4800ee1a90007e1b90008e23900024ff07006f
:080d58008f87e9009bff3700c3
:020000040000fa
:020000040002f8
:04aff000ff7f0000df
:020000040000fa
:020000040002f8
:04aff800feb00000a7
:020000040000fa
:020000040002f8
:04affc003f3e0000d4
:00000001FF
